:100000000C9463000C948B000C948B000C948B006C
:100010000C948B000C948B000C948B000C948B0034
:100020000C948B000C948B000C948B000C9471043A
:100030000C948B000C948B000C948B000C948B0014
:100040000C94CF030C948B000C943F040C94190473
:100050000C948B000C948B000C948B000C948B00F4
:100060000C948B000C948B000000000024002700EF
:100070002A0000000000250028002B0000000008D6
:10008000000201000003040700000000000000005F
:1000900000000000230026002900040404040404D6
:1000A0000404020202020202030303030303010227
:1000B00004081020408001020408102001020408F6
:1000C00010207205DC0811241FBECFEFD8E0DEBF80
:1000D000CDBF11E0A0E0B1E0E2E6F5E102C005909D
:1000E0000D92A831B107D9F722E0A8E1B1E001C033
:1000F0001D92A731B207E1F710E0C2E6D0E004C0DC
:100100002197FE010E946509C136D107C9F70E94F7
:1001100065060C94A40A0C9400008F929F92AF92F3
:10012000BF92FF920F931F93CF93DF93F09008023B
:100130002BE02F1508F44CC020910A0208E512E0CC
:10014000021B110927FD1395000F111F000F111F2E
:1001500020910902C8E8D0E0C21BD10927FDD39540
:10016000CC0FDD1FCC0FDD1F4E010D2E000CAA0899
:10017000BB089801012E000C440B550B28193909B6
:100180004A095B09DC010E940C0924EB30E040E0E5
:1001900050E00E94E208820E931EA41EB51E8C162B
:1001A0009D062CF0E801801691060CF4E4012297DC
:1001B000CC0FDD1F2FB7F8948F2D90E0FC01EE0FD0
:1001C000FF1FE80FF91FE154FE4FD283C1832FBFF9
:1001D000DF91CF911F910F91FF90BF90AF909F90B3
:1001E0008F90089590E0FC01E458FF4F2491FC01AA
:1001F000E255FF4F3491FC01E656FF4FE491EE23A8
:10020000C9F0222339F0233001F1A8F4213019F18B
:10021000223029F1F0E0EE0FFF1FEE58FF4FA591BD
:10022000B4918FB7F894EC91611126C030953E23BC
:100230003C938FBF08952730A9F02830C9F02430AF
:1002400049F7809180008F7D03C0809180008F7777
:1002500080938000DFCF84B58F7784BDDBCF84B5FA
:100260008F7DFBCF8091B0008F778093B000D2CF8D
:100270008091B0008F7DF9CF3E2BDACFCF93DF9303
:1002800090E0FC01E255FF4F249186569F4FFC0100
:1002900084918823D1F090E0880F991FFC01E859E0
:1002A000FF4FA591B491FC01EE58FF4FC591D49139
:1002B00061110EC09FB7F8948C91E22FE0958E23C8
:1002C0008C932881E223E8839FBFDF91CF9108952B
:1002D0008FB7F894EC91E22BEC938FBFF6CF3FB73A
:1002E000F89480911E0190911F01A0912001B0917E
:1002F000210126B5A89B05C02F3F19F00196A11D2D
:10030000B11D3FBFBA2FA92F982F8827BC01CD015F
:10031000620F711D811D911D42E0660F771F881FBE
:10032000991F4A95D1F70895AF92BF92CF92DF926D
:10033000EF92FF920F931F93CF93DF936C017B019A
:100340008B01040F151FEB015E01AE18BF08C0172B
:10035000D10759F06991D601ED91FC910190F0819E
:10036000E02DC6010995892B79F7C501DF91CF9161
:100370001F910F91FF90EF90DF90CF90BF90AF90C3
:100380000895FC01538D448D252F30E0842F90E09B
:10039000821B930B541710F0CF9608950197089580
:1003A000FC01918D828D981761F0A28DAE0FBF2F49
:1003B000B11D5D968C91928D9F5F9F73928F90E09F
:1003C00008958FEF9FEF0895FC01918D828D98170E
:1003D00031F0828DE80FF11D858D90E008958FEF4B
:1003E0009FEF0895FC01918D228D892F90E0805C14
:1003F0009F4F821B91098F739927089582E291E0A4
:100400000E94F20121E0892B09F420E0822F089557
:1004100080E090E0892B29F00E94FE0181110C946C
:1004200000000895FC01A48DA80FB92FB11DA35A97
:10043000BF4F2C91848D90E001968F739927848F04
:10044000A689B7892C93A089B1898C918370806427
:100450008C93938D848D981306C00288F389E02DC8
:1004600080818F7D80830895EF92FF920F931F9379
:10047000CF93DF93EC0181E0888F9B8D8C8D981357
:100480001AC0E889F989808185FF15C09FB7F89463
:10049000EE89FF896083E889F989808183708064AF
:1004A00080839FBF81E090E0DF91CF911F910F91FA
:1004B000FF90EF900895F62E0B8D10E00F5F1F4F09
:1004C0000F731127E02E8C8D8E110CC00FB607FC18
:1004D000FACFE889F989808185FFF5CFCE010E94A6
:1004E0001202F1CFEB8DEC0FFD2FF11DE35AFF4F00
:1004F000F0829FB7F8940B8FEA89FB898081806234
:10050000CFCFCF93DF93EC01888D8823B9F0AA89F0
:10051000BB89E889F9898C9185FD03C0808186FDBE
:100520000DC00FB607FCF7CF8C9185FFF2CF80810D
:1005300085FFEDCFCE010E941202E9CFDF91CF916E
:1005400008950F931F93CF93DF93EC018B01888560
:100550009985029749F46130710509F436C04CF56C
:1005600060E00115110591F188859985049749F49A
:100570000130110509F451C09CF50115110509F46C
:100580003BC088859985059709F0C5C00A301105DB
:1005900008F0C1C0F801E153FD4F0C946509210337
:1005A0002B0339034B03630365036B037503830359
:1005B00089036230710591F060E003301105A1F606
:1005C0008C850E94F20060E005C061E08C850E948D
:1005D000F20061E08E850E94F200C6CF61E0F0CFAC
:1005E0000230110501F10330110559F661E08C85E7
:1005F0000E94F20060E01CC061E08C850E94F20065
:1006000060E08E850E94F20061E088890E94F2001D
:1006100060E08A890E94F200B4CF60E08C850E947D
:10062000F20061E0EECF60E08C850E94F20061E0B4
:100630008E850E94F20060E088890E94F20061E0ED
:10064000E8CF60E08C850E94F20061E08E850E9418
:10065000F20061E009C060E08C850E94F20061E078
:100660008E850E94F20060E088890E94F20060E0BE
:100670000DC060E08C850E94F20061E08E850E94D2
:10068000F20060E088890E94F20061E08A890E949D
:10069000F20061E011C060E08C850E94F20061E030
:1006A0008E850E94F20060E088890E94F20061E07D
:1006B0008A890E94F20060E08C89DF91CF911F91BE
:1006C0000F910C94F20061E0E7CF61E08C850E940D
:1006D000F20060E0E5CF61E08C850E94F20060E00E
:1006E0008E850E94F20061E0DFCF61E08C850E9480
:1006F000F20060E08E850E94F20061E088890E942D
:10070000F20060E0D5CF61E08C850E94F20060E0ED
:100710009DCF60E0F9CFDF91CF911F910F910895A8
:10072000CF93DF93EC0160E08A810E94F20083E0C6
:1007300090E00197F1F761E08A810E94F20083E284
:1007400090E00197F1F760E08A81DF91CF910C94FE
:10075000F2000F931F9390E0FC01E255FF4F64916C
:10076000FC01E656FF4FE491F0E0EE0FFF1FE0576B
:10077000FF4F8591949100E412E42FE030E0462F82
:100780000E942D05611571058105910529F06F5FA6
:100790007F4F8F4F9F4F9F701F910F9108951F9212
:1007A0000F920FB60F9211242F933F938F939F9325
:1007B000AF93BF9380911A0190911B01A0911C01EE
:1007C000B0911D013091190123E0230F2D3758F509
:1007D0000196A11DB11D2093190180931A019093D8
:1007E0001B01A0931C01B0931D0180911E019091EB
:1007F0001F01A0912001B09121010196A11DB11D01
:1008000080931E0190931F01A0932001B0932101BA
:10081000BF91AF919F918F913F912F910F900FBEFC
:100820000F901F90189526E8230F0296A11DB11D69
:10083000D2CF1F920F920FB60F9211242F933F9396
:100840004F935F936F937F938F939F93AF93BF93D8
:10085000EF93FF9382E291E00E941202FF91EF91E9
:10086000BF91AF919F918F917F916F915F914F91C8
:100870003F912F910F900FBE0F901F9018951F92D0
:100880000F920FB60F9211242F938F939F93EF9394
:10089000FF93E0913201F09133018081E0913801C2
:1008A000F091390182FD1BC0908180913B018F5FE7
:1008B0008F7320913C01821741F0E0913B01F0E001
:1008C000EE5DFE4F958F80933B01FF91EF919F91DD
:1008D0008F912F910F900FBE0F901F9018958081D0
:1008E000F4CF1F920F920FB60F9211242F933F93C4
:1008F0004F935F936F937F938F939F93AF93BF9328
:10090000CF93DF93EF93FF9380911801C091E301A0
:10091000D0E087FF24C0109285001092840080915F
:1009200018018F5F8093180180911801082E000C28
:10093000990B8C179D0724F4809118018C30C4F119
:100940008091840090918500049680349C4908F43D
:100950007AC08091840090918500049676C0809141
:100960001801082E000C990B8C179D07C4F6E09116
:1009700018018E2FEE0F990BFC01EE0FFF1FE80FF1
:10098000F91FE154FE4F808186FFC9CFE091180125
:100990008E2FEE0F990BFC01EE0FFF1FE80FF91FD2
:1009A000E154FE4F808160E08F730E94F200B7CF68
:1009B0002091840030918500E09118018E2FEE0F78
:1009C000990BFC01EE0FFF1FE80FF91FE154FE4FDA
:1009D00081819281820F931F909389008093880078
:1009E000E09118018E2FEE0F990BFC01EE0FFF1F07
:1009F000E80FF91FE154FE4F808186FF11C0E0919E
:100A000018018E2FEE0F990BFC01EE0FFF1FE80F60
:100A1000F91FE154FE4F808161E08F730E94F20064
:100A2000FF91EF91DF91CF91BF91AF919F918F9106
:100A30007F916F915F914F913F912F910F900FBEDA
:100A40000F901F90189580E49CE990938900809303
:100A500088008FEF80931801E3CFCF92DF92EF925F
:100A6000FF920F931F93E82FF92F05C00150110932
:100A70002109310961F1908196239417B9F305C0DA
:100A8000015011092109310911F190819623941324
:100A9000F7CFC12CD12CE12CF12C0AC08FEFC81A52
:100AA000D80AE80AF80A0C151D052E053F0579F04D
:100AB00080818623841791F36C2D7D2D8E2D9F2DA3
:100AC0001F910F91FF90EF90DF90CF90089560E01D
:100AD00070E080E090E01F910F91FF90EF90DF9029
:100AE000CF900895109225011092240188EE93E092
:100AF000A0E0B0E08093260190932701A093280105
:100B0000B09329018AE091E0909323018093220120
:100B100085EC90E090932F0180932E0184EC90E07F
:100B2000909331018093300180EC90E090933301F9
:100B30008093320181EC90E09093350180933401F1
:100B400082EC90E0909337018093360186EC90E040
:100B5000909339018093380110923B0110923C012F
:100B600010923D0110923E011092100210920F025D
:100B7000109212021092110210920C0210920B02AB
:100B800010920E0210920D0281E090E09093070205
:100B9000809306028091E3018C3008F092C091E0CE
:100BA000980F9093E3018093080290E0FC01EE0F10
:100BB000FF1FE80FF91FE154FE4F88EB9BE0928383
:100BC00081831092FF011092FE0120E130E030930A
:100BD0000102209300028AE090E090930302809348
:100BE00002021092EF011092EE011092E5011092B4
:100BF000E4011092FA011092FB011092FC01109294
:100C0000FD013093EB012093EA0128E030E03093BE
:100C1000F1012093F0019093F3018093F2018BE0B6
:100C200090E09093F5018093F4018CE090E0909334
:100C3000F7018093F60161E088E00E943E0161E0E7
:100C40008091F2010E943E0161E08091F4010E94D6
:100C50003E0161E08091F6010E943E011092F9018F
:100C60001092F80184E090E09093ED018093EC0104
:100C70002091EA013091EB01032E000C440B550B3F
:100C800060E077E883E993E00E94E208CA01B901D5
:100C90002091020230910302032E000C440B550BED
:100CA0000E94E2082093E6013093E7014093E801B7
:100CB0005093E90184EE91E0909305028093040241
:100CC00008958FEF809308027CCFCF93DF9300D0FD
:100CD00000D000D0CDB7DEB7789484B5826084BDF3
:100CE00084B5816084BD85B5826085BD85B5816030
:100CF00085BD80916E00816080936E0010928100AE
:100D00008091810082608093810080918100816068
:100D10008093810080918000816080938000809129
:100D2000B10084608093B1008091B00081608093B5
:100D3000B00080917A00846080937A0080917A007C
:100D4000826080937A0080917A00816080937A003B
:100D500080917A00806880937A001092C10080911F
:100D600008028C3008F052C061E089E00E943E0128
:100D7000E09108028E2F90E0DC01AA0FBB1FA80FA4
:100D8000B91FA154BE4F8C91807C89608C9382EFF7
:100D90008093090289E180930A022CE08E2F622F52
:100DA0000E944509829FB001112430E020E0AB0190
:100DB000420F531FDA01AA0FBB1FA40FB51FA15486
:100DC000BE4F9C9196FD16C02F5F3F4F2C303105D2
:100DD00071F781110FC01092800082E08093810032
:100DE0001092850010928400B19A80916F00826009
:100DF00080936F008E2F90E0FC01EE0FFF1FE80F35
:100E0000F91FE154FE4F80818064808387E090E089
:100E10009093100280930F0286E090E0909312026C
:100E20008093110260E087E00E943E0161E086E06D
:100E30000E943E0184E090E090930C0280930B02AC
:100E400085E090E090930E0280930D0260E084E0D4
:100E50000E943E0161E085E00E943E0161E083E086
:100E60000E943E01E0913201F091330182E08083E3
:100E7000E0912E01F0912F011082E0913001F0916C
:100E800031018FEC808310923A01E0913601F091AC
:100E9000370186E08083E0913401F0913501808153
:100EA00080618083E0913401F09135018081886018
:100EB0008083E0913401F0913501808180688083E6
:100EC000E0913401F091350180818F7D808359E973
:100ED000252E312C8BE092E00E94900380910B0232
:100EE0000E94A9036B017C018FE092E00E949003B5
:100EF00080910F020E94A9034B015C01C701B6015A
:100F00002AE330E040E050E00E94E208F12CE12CBE
:100F100025313105410551054CF42A303105410593
:100F200051050CF481C04AE5E42EF12C0091FE013C
:100F30001091FF010E151F0509F492C0E091000207
:100F4000F0910102EE9EC001EF9E900DFE9E900D6D
:100F5000112468E671E00E9451099B010E9FC001B7
:100F60000F9F900D1E9F900D112468E671E00E9466
:100F70005109261B370BC0900402D090050289014D
:100F800037FF04C000271127021B130B121613068C
:100F90000CF04EC044244394512CF60151824082FF
:100FA0000115110509F458C00E946F01F601268948
:100FB0003789408D518D2B013C01421A530A640A36
:100FC000750A228133814481558142165306640695
:100FD000750630F3668B778B808F918F8285938532
:100FE000208131812130310551F501969387828727
:100FF000268137818217930711F4138612860150D8
:101000001109F60182859385208531856AE070E0BB
:101010002530310511F064E070E00E945109BC01F7
:10102000C6010E94A102BCCF34EBE32EF12C7ECF8F
:10103000232B09F4B5CFF60111821082B1CF892B91
:1010400021F48681978193878287F6018285938533
:10105000019793878287D3CFF092FF01E092FE0140
:101060008091060290910702F4E58F16FBE09F063F
:10107000A104B10434F5892B41F0109207021092BB
:10108000060284EB90E00E948D0080910602909110
:10109000070261E0892B09F08AC083E00E943E01CB
:1010A000EFE7F0E08491833009F465C0B0F481305B
:1010B00031F1823009F459C061E083E00E94F2000E
:1010C00023C0019711F344244394512C50920702FA
:1010D0004092060290E080E0D6CF873009F455C0F8
:1010E000883009F45BC0843039F7809180008062D9
:1010F0008093800030928B0020928A0005C084B5D6
:10110000806884BD89E987BD0E946F014B015C0145
:1011100084E6C82ED12CE12CF12C0E946F016819B5
:1011200079098A099B09683E734081059105A8F3F6
:10113000F1E0CF1AD108E108F10828EE820E23E091
:10114000921EA11CB11CC114D104E104F10429F7C1
:1011500080E090E0892B09F4BDCE0E94FE01882337
:1011600009F4B5CE0E940000B2CE84B5806284BD81
:1011700089E988BDC9CF8091800080688093800014
:101180003092890020928800BFCF8091B0008068A3
:101190008093B00089E98093B300B6CF8091B0000E
:1011A00080628093B00089E98093B400ADCF83E082
:1011B0000E943E0160E081CF80910402909105027F
:1011C0000C941B0A052E97FB1EF400940E94F9084C
:1011D00057FD07D00E94140907FC03D04EF40C946D
:1011E000F90850954095309521953F4F4F4F5F4FEF
:1011F000089590958095709561957F4F8F4F9F4F83
:1012000008950E943609A59F900DB49F900DA49F4C
:10121000800D911D11240895B7FF0C9401090E94BF
:101220000109821B930B0895A1E21A2EAA1BBB1B76
:10123000FD010DC0AA1FBB1FEE1FFF1FA217B307A2
:10124000E407F50720F0A21BB30BE40BF50B661FB8
:10125000771F881F991F1A9469F76095709580957C
:1012600090959B01AC01BD01CF010895A29FB001F3
:10127000B39FC001A39F700D811D1124911DB29FCA
:10128000700D811D1124911D0895991B79E004C0F2
:10129000991F961708F0961B881F7A95C9F78095B5
:1012A000089597FB072E16F4009407D077FD09D018
:1012B0000E946B0907FC05D03EF4909581959F4FE5
:1012C0000895709561957F4F0895EE0FFF1F05906B
:1012D000F491E02D0994AA1BBB1B51E107C0AA1F82
:1012E000BB1FA617B70710F0A61BB70B881F991FC7
:1012F0005A95A9F780959095BC01CD0108950F935B
:101300001F93CF93DF938230910510F482E090E039
:10131000E0911502F091160230E020E0B0E0A0E08C
:10132000309799F42115310509F44AC0281B390B6F
:1013300024303105D8F58A819B816115710589F1C9
:10134000FB0193838283FE0111C0408151810281A0
:10135000138148175907E0F04817590799F4109777
:1013600061F012960C93129713961C933296CF014C
:10137000DF91CF911F910F91089500931502109363
:101380001602F4CF2115310551F04217530738F0FA
:10139000A901DB019A01BD01DF01F801C1CFEF0115
:1013A000F9CF9093160280931502CDCFFE01E20F84
:1013B000F31F819391932250310939832883D7CF2A
:1013C0002091130230911402232B41F42091020149
:1013D00030910301309314022093130220910001F5
:1013E000309101012115310541F42DB73EB74091EF
:1013F000040150910501241B350BE0911302F0917B
:101400001402E217F307A0F42E1B3F0B281739072D
:1014100078F0AC014E5F5F4F2417350748F04E0F50
:101420005F1F5093140240931302819391939FCFB7
:10143000F0E0E0E09CCFCF93DF930097E9F0FC0170
:10144000329713821282A0911502B0911602ED011B
:1014500030E020E01097A1F420813181820F931FAA
:1014600020911302309114022817390709F061C046
:10147000F0931402E0931302DF91CF910895EA01F3
:10148000CE17DF07E8F54A815B819E0141155105C2
:10149000B1F7E901FB83EA8349915991C40FD51F44
:1014A000EC17FD0761F4808191810296840F951FEE
:1014B000E90199838883828193819B838A83F0E009
:1014C000E0E012968D919C9113970097B9F52D91BC
:1014D0003C911197CD010296820F931F2091130228
:1014E000309114022817390739F6309751F51092C8
:1014F000160210921502B0931402A0931302BCCFEF
:10150000D383C28340815181840F951FC817D907A7
:1015100061F44E5F5F4F88819981480F591F518355
:1015200040838A819B81938382832115310509F051
:10153000B0CFF0931602E09315029ECFFD01DC01BF
:10154000C0CF13821282D7CF10E0C2E6D0E004C031
:10155000FE010E9465092196C336D107C9F7F894A8
:02156000FFCFBB
:101562000000170280000000000034029401C10153
:081572008102F201D001E40145
:00000001FF
