:100000000C9463000C948B000C948B000C948B006C
:100010000C948B000C948B000C948B000C948B0034
:100020000C948B000C948B000C948B000C94F904B2
:100030000C948B000C948B000C948B000C948B0014
:100040000C9457040C948B000C94C7040C94A104DA
:100050000C948B000C948B000C948B000C948B00F4
:100060000C948B000C948B000000000024002700EF
:100070002A0000000000250028002B0000000008D6
:10008000000201000003040700000000000000005F
:1000900000000000230026002900040404040404D6
:1000A0000404020202020202030303030303010227
:1000B00004081020408001020408102001020408F6
:1000C0001020FA05940911241FBECFEFD8E0DEBF3F
:1000D000CDBF11E0A0E0B1E0E2EDF6E102C0059095
:1000E0000D92AA32B107D9F722E0AAE2B1E001C02D
:1000F0001D92A932B207E1F710E0C2E6D0E004C0D9
:100100002197FE010E941D0AC136D107C9F70E943E
:10011000ED060C945C0B0C9400008F929F92AF92B2
:10012000BF92FF920F931F93CF93DF93F0901A0229
:100130002BE02F1508F44CC020911C0208E512E0BA
:10014000021B110927FD1395000F111F000F111F2E
:1001500020911B02C8E8D0E0C21BD10927FDD3952E
:10016000CC0FDD1FCC0FDD1F4E010D2E000CAA0899
:10017000BB089801012E000C440B550B28193909B6
:100180004A095B09DC010E94C40924EB30E040E02D
:1001900050E00E949A09820E931EA41EB51E8C1672
:1001A0009D062CF0E801801691060CF4E4012297DC
:1001B000CC0FDD1F2FB7F8948F2D90E0FC01EE0FD0
:1001C000FF1FE80FF91FEF52FE4FD283C1832FBFED
:1001D000DF91CF911F910F91FF90BF90AF909F90B3
:1001E0008F90089590E0FC01E458FF4F2491FC01AA
:1001F000E255FF4F3491FC01E656FF4FE491EE23A8
:10020000C9F0222339F0233001F1A8F4213019F18B
:10021000223029F1F0E0EE0FFF1FEE58FF4FA591BD
:10022000B4918FB7F894EC91611126C030953E23BC
:100230003C938FBF08952730A9F02830C9F02430AF
:1002400049F7809180008F7D03C0809180008F7777
:1002500080938000DFCF84B58F7784BDDBCF84B5FA
:100260008F7DFBCF8091B0008F778093B000D2CF8D
:100270008091B0008F7DF9CF3E2BDACFCF93DF9303
:1002800090E0FC01E255FF4F249186569F4FFC0100
:1002900084918823D1F090E0880F991FFC01E859E0
:1002A000FF4FA591B491FC01EE58FF4FC591D49139
:1002B00061110EC09FB7F8948C91E22FE0958E23C8
:1002C0008C932881E223E8839FBFDF91CF9108952B
:1002D0008FB7F894EC91E22BEC938FBFF6CF3FB73A
:1002E000F8948091300190913101A0913201B09148
:1002F000330126B5A89B05C02F3F19F00196A11D1B
:10030000B11D3FBFBA2FA92F982F8827BC01CD015F
:10031000620F711D811D911D42E0660F771F881FBE
:10032000991F4A95D1F70895AF92BF92CF92DF926D
:10033000EF92FF920F931F93CF93DF936C017B019A
:100340008B01040F151FEB015E01AE18BF08C0172B
:10035000D10759F06991D601ED91FC910190F0819E
:10036000E02DC6010995892B79F7C501DF91CF9161
:100370001F910F91FF90EF90DF90CF90BF90AF90C3
:100380000895FC01538D448D252F30E0842F90E09B
:10039000821B930B541710F0CF9608950197089580
:1003A000FC01918D828D981761F0A28DAE0FBF2F49
:1003B000B11D5D968C91928D9F5F9F73928F90E09F
:1003C00008958FEF9FEF0895FC01918D828D98170E
:1003D00031F0828DE80FF11D858D90E008958FEF4B
:1003E0009FEF0895FC01918D228D892F90E0805C14
:1003F0009F4F821B91098F739927089584E391E0A1
:100400000E94F20121E0892B09F420E0822F089557
:1004100080E090E0892B29F00E94FE0181110C946C
:1004200000000895FC01A48DA80FB92FB11DA35A97
:10043000BF4F2C91848D90E001968F739927848F04
:10044000A689B7892C93A089B1898C918370806427
:100450008C93938D848D981306C00288F389E02DC8
:1004600080818F7D80830895EF92FF920F931F9379
:10047000CF93DF93EC0181E0888F9B8D8C8D981357
:100480001AC0E889F989808185FF15C09FB7F89463
:10049000EE89FF896083E889F989808183708064AF
:1004A00080839FBF81E090E0DF91CF911F910F91FA
:1004B000FF90EF900895F62E0B8D10E00F5F1F4F09
:1004C0000F731127E02E8C8D8E110CC00FB607FC18
:1004D000FACFE889F989808185FFF5CFCE010E94A6
:1004E0001202F1CFEB8DEC0FFD2FF11DE35AFF4F00
:1004F000F0829FB7F8940B8FEA89FB898081806234
:10050000CFCFCF93DF93EC01888D8823B9F0AA89F0
:10051000BB89E889F9898C9185FD03C0808186FDBE
:100520000DC00FB607FCF7CF8C9185FFF2CF80810D
:1005300085FFEDCFCE010E941202E9CFDF91CF916E
:1005400008950F931F93CF93DF93EC018B01888560
:100550009985029749F46130710509F436C04CF56C
:1005600060E00115110591F188859985049749F49A
:100570000130110509F451C09CF50115110509F46C
:100580003BC088859985059709F0C5C00A301105DB
:1005900008F0C1C0F801E153FD4F0C941D0A21037E
:1005A0002B0339034B03630365036B037503830359
:1005B00089036230710591F060E003301105A1F606
:1005C0008C850E94F20060E005C061E08C850E948D
:1005D000F20061E08E850E94F200C6CF61E0F0CFAC
:1005E0000230110501F10330110559F661E08C85E7
:1005F0000E94F20060E01CC061E08C850E94F20065
:1006000060E08E850E94F20061E088890E94F2001D
:1006100060E08A890E94F200B4CF60E08C850E947D
:10062000F20061E0EECF60E08C850E94F20061E0B4
:100630008E850E94F20060E088890E94F20061E0ED
:10064000E8CF60E08C850E94F20061E08E850E9418
:10065000F20061E009C060E08C850E94F20061E078
:100660008E850E94F20060E088890E94F20060E0BE
:100670000DC060E08C850E94F20061E08E850E94D2
:10068000F20060E088890E94F20061E08A890E949D
:10069000F20061E011C060E08C850E94F20061E030
:1006A0008E850E94F20060E088890E94F20061E07D
:1006B0008A890E94F20060E08C89DF91CF911F91BE
:1006C0000F910C94F20061E0E7CF61E08C850E940D
:1006D000F20060E0E5CF61E08C850E94F20060E00E
:1006E0008E850E94F20061E0DFCF61E08C850E9480
:1006F000F20060E08E850E94F20061E088890E942D
:10070000F20060E0D5CF61E08C850E94F20060E0ED
:100710009DCF60E0F9CFDF91CF911F910F910895A8
:10072000CF93DF93EC0160E08A810E94F20083E0C6
:1007300090E00197F1F761E08A810E94F20083E284
:1007400090E00197F1F760E08A81DF91CF910C94FE
:10075000F2000F931F9390E0FC01E255FF4F64916C
:10076000FC01E656FF4FE491F0E0EE0FFF1FE0576B
:10077000FF4F8591949100E412E42FE030E0462F82
:100780000E94B505611571058105910529F06F5F1E
:100790007F4F8F4F9F4F9F701F910F910895FC01C6
:1007A00001900020E9F73197AF01481B590BBC01BC
:1007B00084E391E00C9494018F929F92AF92BF9248
:1007C000CF92DF92EF92FF920F931F93CF93DF931D
:1007D000CDB7DEB7A1970FB6F894DEBF0FBECDBF81
:1007E0006B017C01F7FE41C06DE284E391E00E9461
:1007F00034028C0122273327A9012C193D094E0907
:100800005F0919A2CE0181967C019AE0892E912C74
:10081000A12CB12CCA01B901A50194010E94CC09F7
:10082000605DF70162937F01211531054105510596
:1008300089F790E080E0309719F0CF010E94CF0354
:10084000800F911FA1960FB6F894DEBF0FBECDBFEB
:10085000DF91CF911F910F91FF90EF90DF90CF909C
:10086000BF90AF909F908F900895AC019B0119A20B
:100870008E010F5D1F4F8AE0C82ED12CE12CF12C88
:10088000CA01B901A70196010E94CC09605DF80177
:1008900062938F01211531054105510589F790E0DB
:1008A00080E0309779F2CF010E94CF03CBCF1F9227
:1008B0000F920FB60F9211242F933F938F939F9314
:1008C000AF93BF9380912C0190912D01A0912E01A7
:1008D000B0912F0130912B0123E0230F2D3758F5D4
:1008E0000196A11DB11D20932B0180932C019093A3
:1008F0002D01A0932E01B0932F0180913001909192
:100900003101A0913201B09133010196A11DB11DB9
:100910008093300190933101A0933201B093330161
:10092000BF91AF919F918F913F912F910F900FBEEB
:100930000F901F90189526E8230F0296A11DB11D58
:10094000D2CF1F920F920FB60F9211242F933F9385
:100950004F935F936F937F938F939F93AF93BF93C7
:10096000EF93FF9384E391E00E941202FF91EF91D5
:10097000BF91AF919F918F917F916F915F914F91B7
:100980003F912F910F900FBE0F901F9018951F92BF
:100990000F920FB60F9211242F938F939F93EF9383
:1009A000FF93E0914401F09145018081E0914A017B
:1009B000F0914B0182FD1BC0908180914D018F5FB2
:1009C0008F7320914E01821741F0E0914D01F0E0CC
:1009D000EC5CFE4F958F80934D01FF91EF919F91BD
:1009E0008F912F910F900FBE0F901F9018958081BF
:1009F000F4CF1F920F920FB60F9211242F933F93B3
:100A00004F935F936F937F938F939F93AF93BF9316
:100A1000CF93DF93EF93FF9380912A01C091F5016B
:100A2000D0E087FF24C0109285001092840080914E
:100A30002A018F5F80932A0180912A01082E000CE1
:100A4000990B8C179D0724F480912A018C30C4F1F6
:100A50008091840090918500049680349C4908F42C
:100A60007AC08091840090918500049676C0809130
:100A70002A01082E000C990B8C179D07C4F6E091F3
:100A80002A018E2FEE0F990BFC01EE0FFF1FE80FCE
:100A9000F91FEF52FE4F808186FFC9CFE0912A01F6
:100AA0008E2FEE0F990BFC01EE0FFF1FE80FF91FC1
:100AB000EF52FE4F808160E08F730E94F200B7CF4B
:100AC0002091840030918500E0912A018E2FEE0F55
:100AD000990BFC01EE0FFF1FE80FF91FEF52FE4FBD
:100AE00081819281820F931F909389008093880067
:100AF000E0912A018E2FEE0F990BFC01EE0FFF1FE4
:100B0000E80FF91FEF52FE4F808186FF11C0E09180
:100B10002A018E2FEE0F990BFC01EE0FFF1FE80F3D
:100B2000F91FEF52FE4F808161E08F730E94F20047
:100B3000FF91EF91DF91CF91BF91AF919F918F91F5
:100B40007F916F915F914F913F912F910F900FBEC9
:100B50000F901F90189580E49CE9909389008093F2
:100B600088008FEF80932A01E3CFCF92DF92EF923C
:100B7000FF920F931F93E82FF92F05C00150110921
:100B80002109310961F1908196239417B9F305C0C9
:100B9000015011092109310911F190819623941313
:100BA000F7CFC12CD12CE12CF12C0AC08FEFC81A41
:100BB000D80AE80AF80A0C151D052E053F0579F03C
:100BC00080818623841791F36C2D7D2D8E2D9F2D92
:100BD0001F910F91FF90EF90DF90CF90089560E00C
:100BE00070E080E090E01F910F91FF90EF90DF9018
:100BF000CF900895109237011092360188EE93E05D
:100C0000A0E0B0E08093380190933901A0933A01BD
:100C1000B0933B018AE091E09093350180933401D9
:100C200085EC90E0909341018093400184EC90E04A
:100C3000909343018093420180EC90E090934501B2
:100C40008093440181EC90E09093470180934601AA
:100C500082EC90E0909349018093480186EC90E00B
:100C600090934B0180934A0110924D0110924E01D6
:100C700010924F0110925001109222021092210204
:100C8000109224021092230210921E0210921D0252
:100C90001092200210921F0281E090E090931902BE
:100CA000809318028091F5018C3008F092C091E099
:100CB000980F9093F50180931A0290E0FC01EE0FDB
:100CC000FF1FE80FF91FEF52FE4F88EB9BE0928366
:100CD0008183109211021092100220E130E03093D3
:100CE0001302209312028AE090E090931502809301
:100CF000140210920102109200021092F701109259
:100D0000F60110920C0210920D0210920E02109237
:100D10000F023093FD012093FC0128E030E0309376
:100D200003022093020290930502809304028BE059
:100D300090E090930702809306028CE090E09093FD
:100D400009028093080261E088E00E943E0161E0B0
:100D5000809104020E943E0161E0809106020E949F
:100D60003E0161E0809108020E943E0110920B0258
:100D700010920A0284E090E09093FF018093FE01BC
:100D80002091FC013091FD01032E000C440B550B0A
:100D900060E077E883E993E00E949A09CA01B9010B
:100DA0002091140230911502032E000C440B550BB8
:100DB0000E949A092093F8013093F9014093FA01B7
:100DC0005093FB0186EF91E09093170280931602F7
:100DD00008958FEF80931A027CCFCF93DF93CDB726
:100DE000DEB72A970FB6F894DEBF0FBECDBF78945A
:100DF00084B5826084BD84B5816084BD85B5826020
:100E000085BD85B5816085BD80916E0081608093D0
:100E10006E00109281008091810082608093810039
:100E20008091810081608093810080918000816049
:100E3000809380008091B10084608093B1008091A4
:100E4000B00081608093B00080917A0084608093CC
:100E50007A0080917A00826080937A0080917A0093
:100E6000816080937A0080917A00806880937A0014
:100E70001092C10080911A028C3008F052C061E0DB
:100E800089E00E943E01E0911A028E2F90E0DC0181
:100E9000AA0FBB1FA80FB91FAF52BE4F8C91807C09
:100EA00089608C9382EF80931B0289E180931C02FE
:100EB0002CE08E2F622F0E94FD09829FB001112429
:100EC00030E020E0AB01420F531FDA01AA0FBB1F35
:100ED000A40FB51FAF52BE4F9C9196FD16C02F5F59
:100EE0003F4F2C30310571F781110FC010928000F7
:100EF00082E0809381001092850010928400B19A64
:100F000080916F00826080936F008E2F90E0FC01D3
:100F1000EE0FFF1FE80FF91FEF52FE4F8081806434
:100F2000808387E090E0909322028093210286E004
:100F300090E0909324028093230260E087E00E9477
:100F40003E0161E086E00E943E0184E090E09093E3
:100F50001E0280931D0285E090E090932002809312
:100F60001F0260E084E00E943E0161E085E00E9493
:100F70003E0161E083E00E943E01E0914401F09176
:100F8000450182E08083E0914001F09141011082AF
:100F9000E0914201F09143018FEC808310924C016B
:100FA000E0914801F091490186E08083E09146019B
:100FB000F0914701808180618083E0914601F0914A
:100FC0004701808188608083E0914601F09147016C
:100FD000808180688083E0914601F09147018081A3
:100FE0008F7D808359E9252E312C8DE192E00E947E
:100FF000900380911D020E94A9036B017C0181E294
:1010000092E00E949003809121020E94A9034B016B
:101010005C01C701B6012AE330E040E050E00E94E5
:101020009A09F12CE12C25313105410551054CF48B
:101030002A303105410551050CF481C04AE5E42E02
:10104000F12C00911002109111020E151F0509F4E8
:1010500092C0E0911202F0911302EE9EC001EF9E49
:10106000900DFE9E900D112468E671E00E94090A21
:101070009B010E9FC0010F9F900D1E9F900D11248C
:1010800068E671E00E94090A261B370BC090160221
:10109000D0901702890137FF04C000271127021BD7
:1010A000130B121613060CF04EC044244394512C1B
:1010B000F601518240820115110509F458C00E94C1
:1010C0006F01F60146885788608C718C9B01AC01DA
:1010D0002419350946095709428053806480758078
:1010E000241535054605570530F3668B778B808FC1
:1010F000918F82859385208131812130310551F591
:10110000019693878287268137818217930711F48E
:101110001386128601501109F60182859385208578
:1011200031856AE070E02530310511F064E070E04F
:101130000E94090ABC01C6010E94A102BCCF34EB87
:10114000E32EF12C7ECF232B09F4B5CFF6011182CB
:101150001082B1CF892B21F4868197819387828772
:10116000F60182859385019793878287D3CFF0928A
:101170001102E0921002C501B4012AE330E040E020
:1011800050E00E949A0969017A01809118029091B9
:101190001902F2E3CF16D104E104F10434F5892BEE
:1011A00041F0109219021092180284EB90E00E9414
:1011B0008D00809118029091190261E0892B09F04D
:1011C000AEC083E00E943E01EFE7F0E084918330FF
:1011D00009F489C0B0F4813031F1823009F47DC066
:1011E00061E083E00E94F20023C0019711F34424E0
:1011F0004394512C509219024092180290E080E0E2
:10120000D6CF873009F479C0883009F47FC08430A4
:1012100039F78091800080628093800030928B004B
:1012200020928A0005C084B5806884BD89E987BDA5
:10123000C501B40124E930E040E050E00E949A0981
:10124000CA01B9010E94DC0388E191E00E94CF034A
:10125000C701B6010E94DC038DE191E00E94CF033B
:10126000C501B4010E94DC0382E291E00E94CF0339
:1012700086E291E00E94CF030E946F016B017C0126
:1012800084E6882E912CA12CB12C0E946F016C1940
:101290007D098E099F09683E734081059105A8F379
:1012A000F1E08F1A9108A108B10828EEC20E23E0E0
:1012B000D21EE11CF11C81149104A104B10429F790
:1012C00080E090E0892B09F490CE0E94FE018823F3
:1012D00009F488CE0E94000085CE84B5806284BD6A
:1012E00089E988BDA5CF80918000806880938000C7
:1012F00030928900209288009BCF8091B000806856
:101300008093B00089E98093B30092CF8091B000C0
:1013100080628093B00089E98093B40089CF83E034
:101320000E943E0160E05DCF80911602909117020D
:101330000C94D30A052E97FB1EF400940E94B10969
:1013400057FD07D00E94CC0907FC03D04EF40C9443
:10135000B10950954095309521953F4F4F4F5F4FC4
:10136000089590958095709561957F4F8F4F9F4F11
:1013700008950E94EE09A59F900DB49F900DA49F23
:10138000800D911D11240895B7FF0C94B9090E9496
:10139000B909821B930B0895A1E21A2EAA1BBB1B4D
:1013A000FD010DC0AA1FBB1FEE1FFF1FA217B30731
:1013B000E407F50720F0A21BB30BE40BF50B661F47
:1013C000771F881F991F1A9469F76095709580950B
:1013D00090959B01AC01BD01CF010895A29FB00182
:1013E000B39FC001A39F700D811D1124911DB29F59
:1013F000700D811D1124911D0895991B79E004C081
:10140000991F961708F0961B881F7A95C9F7809543
:10141000089597FB072E16F4009407D077FD09D0A6
:101420000E94230A07FC05D03EF4909581959F4FBA
:101430000895709561957F4F0895EE0FFF1F0590F9
:10144000F491E02D0994AA1BBB1B51E107C0AA1F10
:10145000BB1FA617B70710F0A61BB70B881F991F55
:101460005A95A9F780959095BC01CD0108950F93E9
:101470001F93CF93DF938230910510F482E090E0C8
:10148000E0912702F091280230E020E0B0E0A0E0F7
:10149000309799F42115310509F44AC0281B390BFE
:1014A00024303105D8F58A819B816115710589F158
:1014B000FB0193838283FE0111C04081518102812F
:1014C000138148175907E0F04817590799F4109706
:1014D00061F012960C93129713961C933296CF01DB
:1014E000DF91CF911F910F910895009327021093E0
:1014F0002802F4CF2115310551F04217530738F077
:10150000A901DB019A01BD01DF01F801C1CFEF01A3
:10151000F9CF9093280280932702CDCFFE01E20FEE
:10152000F31F819391932250310939832883D7CFB8
:101530002091250230912602232B41F420910201B3
:10154000309103013093260220932502209100015F
:10155000309101012115310541F42DB73EB740917D
:10156000040150910501241B350BE0912502F091F7
:101570002602E217F307A0F42E1B3F0B28173907AA
:1015800078F0AC014E5F5F4F2417350748F04E0FDF
:101590005F1F5093260240932502819391939FCF22
:1015A000F0E0E0E09CCFCF93DF930097E9F0FC01FF
:1015B000329713821282A0912702B0912802ED0186
:1015C00030E020E01097A1F420813181820F931F39
:1015D00020912502309126022817390709F061C0B1
:1015E000F0932602E0932502DF91CF910895EA015E
:1015F000CE17DF07E8F54A815B819E014115510551
:10160000B1F7E901FB83EA8349915991C40FD51FD2
:10161000EC17FD0761F4808191810296840F951F7C
:10162000E90199838883828193819B838A83F0E097
:10163000E0E012968D919C9113970097B9F52D914A
:101640003C911197CD010296820F931F20912502A4
:10165000309126022817390739F6309751F5109244
:10166000280210922702B0932602A0932502BCCF35
:10167000D383C28340815181840F951FC817D90736
:1016800061F44E5F5F4F88819981480F591F5183E4
:1016900040838A819B81938382832115310509F0E0
:1016A000B0CFF0932802E09327029ECFFD01DC012A
:1016B000C0CF13821282D7CF10E0C2E6D0E004C0C0
:1016C000FE010E941D0A2196C336D107C9F7F8947E
:0216D000FFCF4A
:1016D2000000290280000000000034029401C101D0
:1016E2008102F201D001E401696E2C2000636D2CAD
:0A16F2002000726177000D0A00006D
:00000001FF
